:020000040000FA
:10000000480A0020250200006502000009020000E5
:10001000690200006B0200006D0200000000000099
:100020000000000000000000000000006F0200005F
:100030007102000000000000730200007502000061
:1000400077020000770200007702000077020000CC
:1000500077020000770200007702000077020000BC
:1000600077020000770200007702000077020000AC
:10007000770200007702000077020000770200009C
:10008000770200007702000077020000770200008C
:10009000770200007702000077020000770200007C
:1000A000770200007702000077020000770200006C
:1000B000770200007702000077020000770200005C
:1000C0007702000041130000770200007702000071
:1000D0007D13000077020000770200007702000025
:1000E000770200007702000077020000770200002C
:1000F000770200007702000077020000770200001C
:10010000770200007702000077020000770200000B
:1001100077020000770200007702000077020000FB
:1001200077020000770200007702000077020000EB
:1001300077020000770200007702000077020000DB
:1001400077020000770200007702000077020000CB
:1001500077020000770200007702000077020000BB
:1001600077020000770200007702000077020000AB
:10017000770200007702000077020000770200009B
:10018000770200007702000077020000770200008B
:10019000770200007702000077020000770200007B
:1001A000770200007702000077020000770200006B
:1001B000770200007702000077020000770200005B
:1001C000770200007702000077020000770200004B
:1001D000770200007702000077020000770200003B
:1001E000770200007702000077020000770200002B
:1001F00077020000DFF80CD000F08CF800480047D0
:10020000CD200000480A002004207146084202D098
:10021000EFF3098001E0EFF308807146004A1047D0
:100220007108000014484FF0590101604FF01601A9
:1002300001604FF0880101601048416841F480413D
:1002400041600F48416841F002014160416841F05E
:10025000040141600B48804707484FF000010160EE
:1002600009480047FEE7FEE7FEE7FEE7FEE7FEE798
:10027000FEE7FEE7FEE7FEE7000100400002004067
:1002800000700040A9110000F501000040EA0103E0
:100290009B0703D009E008C9121F08C0042AFAD23C
:1002A00003E011F8013B00F8013B521EF9D2704700
:1002B0002DE9F05F0546002092469B46884606469B
:1002C000814640241BE0284641464746224600F02E
:1002D00042F853465A46C01A914110D31146184667
:1002E000224600F029F82D1A67EB01084F462246F6
:1002F0000120002100F020F817EB00094E41201EDC
:10030000A4F10104DFDC484631462A464346BDE8F5
:10031000F09F0000064C074D06E0E06840F0010346
:1003200094E8070098471034AC42F6D3FFF766FF15
:100330001022000030220000202A04DB203A00FABC
:1003400002F1002070479140C2F1200320FA03F32C
:10035000194390407047202A04DB203A21FA02F02A
:100360000021704721FA02F3D040C2F120029140EF
:100370000843194670474FF08040D0F8401241F4CE
:100380008031C0F84012704700F01F0201219140F7
:10039000034A800F02EB800002680A430260704744
:1003A000040200402DE9F84F0D460446FFF7E3FF35
:1003B0004FF08040484ED0F80012C4B141F0040123
:1003C000C0F80012102000F011FA4FF40020009045
:1003D000424843492844B34688426DD84FF000094B
:1003E0004FF0FF324F464E46AE46012015E041F039
:1003F0000101C0F80012012000F0F8F90020E6E742
:10040000F2B3032839D0042802D0022805D102E033
:100410004FEA8E0501E04FEA4E0502236AB3BBFBAB
:10042000F3F1304CDFF8BCC00C44CCF1000C644557
:1004300020D80224C1F35D0ADFF8A0C00AFB04F152
:1004400001EB0C08DFF8A0C0E0450ED8B1EB950F2A
:1004500002D9A1EB950101E0C1EB9501914204D2D3
:100460000A0099462746064604D040F20121641C42
:100470008C42E1D95B1C202BD0D9401C042800E021
:1004800000E0BDD91948009900EB8630184A0843AE
:1004900002EB49210843B91E08434FF08041C1F8DF
:1004A0004002042000F0A2F906FB09F6BBFBF6F0BF
:1004B00078434000BDE8F88F5CB10E494FF08040B2
:1004C000C0F84012042000F091F9BDE8F84F00F0A8
:1004D000A7B844F21E21F1E7001BB700800F05FD0D
:1004E0008074D21A00F7C2FFC068780400C0FFFF12
:1004F00000FEFFFF1E4208004FF08041D1F80022AD
:100500000243C1F80022704710B500F029FE0148EF
:10051000006810BD0000002010B500F021FE014869
:10052000006810BD000000204FF08040D0F80002AD
:10053000C00700D000487047001BB7004FF0804054
:10054000D0F80002800702D54FF400407047002029
:100550007047000010B500F003FE4FF08041D1F865
:1005600034024207134817D0D1F8342202F00702B0
:10057000012A13D0D1F8342202F00702022A10D047
:10058000D1F8342202F00702032A0DD0D1F8341238
:1005900001F0070104290AD0006810BD0068400876
:1005A00010BD0068800810BD0068C00810BD00685C
:1005B000000910BD0000002010B500F0D1FD4FF083
:1005C0008041D1F8340210F0700F144817D0D1F8E0
:1005D0003422C2F30212012A13D0D1F83422C2F31A
:1005E0000212022A10D0D1F83422C2F30212032AD6
:1005F0000DD0D1F83412C1F3021104290AD00068D9
:1006000010BD0068400810BD0068800810BD00687B
:10061000C00810BD0068000910BD000000000020E7
:1006200008B510A10020096800914FF08041D1F871
:10063000401211F4A02F13D10B488A0310D4C1F338
:100640000800C1F38132094B801C1DF80220C1F360
:1006500044215843491C11FB02F1B0FBF1F0C000EA
:1006600008BD000001020204001BB700C0C62D0037
:1006700070B54FF080440646D4F8500200F01005E3
:100680001B48864200D90646D4F8000240F0040018
:10069000C4F80002102004F5007400F0A7F82069E7
:1006A00040F007002061206A20F00F0020622068DF
:1006B000A4F50074C007314604D00020FFF772FE95
:1006C000064608E04FF40020FFF76CFE0646D4F81B
:1006D000500200F010050021022000F00BF82DB9A7
:1006E000D4F8000220F00400C4F80002304670BDC7
:1006F00000B0710B2DE9F0414FF080440746D4F86B
:1007000050020E4600F01005D4F8000240F004003C
:10071000C4F80002102004F5007400F067F82069A6
:1007200040F007002061206A20F00F003043206273
:10073000206920F0070038432061A4F5007400F020
:100740000FFD002D05D1D4F8000220F00400C4F8FC
:100750000002BDE8F0810000F0B510F47F3F2ED01C
:100760004FF08043D3F8F431DFF878C0DFB21D4B8F
:10077000C0F381440C3B6FEA90450CF1040603EB97
:100780008403012F02D0022C0DD001E0022C02D0F4
:10079000AC070AD00AE0C343DC06134B06D000F0D6
:1007A0001F041D2C02D0634600E033461C68C0F3D2
:1007B0008725C0F34416B540AC4314431C60420E79
:1007C00052070ED0084BC0F30172183B03EB8202B4
:1007D0001368C0F34264C0F304508440A3430B4346
:1007E0001360F0BD2C0200402802004030B5012407
:1007F00005460849A20705E0081EA1F1010101DC38
:10080000002404E0D2F8503235EA0300F4D1204647
:1008100030BD000080F52000F0B50023012703253E
:1008200007FA03F48C4309D106685C0005FA04FC5E
:1008300026EA0C0602FA04F4264306605B1C102B21
:10084000EED3F0BDF0B500230127032507FA03F42A
:100850000C4209D0866A5C0005FA04FC26EA0C0604
:1008600002FA04F4264386625B1C102BEED3F0BD23
:10087000044603A001F048F9204601F045FCFEE7DC
:10088000496E2048617264204661756C742048612D
:100890006E646C65720A000010B5094C01221146A5
:1008A0002046FFF7B9FF012202212046FFF7B4FFDF
:1008B00020460122BDE810400421FFF7ADBF000033
:1008C000C041004000F01F0201219140400980001A
:1008D00000F1E020C0F800117047000070B5002260
:1008E000094D0126134606FA02F40C4203D000EB30
:1008F00002142360AB54521C102AF4D3D0F8002405
:100900000A43C0F8002470BD3800002000EB01103D
:10091000016821F07401016001681A43114301600C
:10092000704730B500EB0110DDE90345426084609B
:10093000016821F47061016001682B431943016073
:1009400030BD000010B500EB011001684CF6FF74DB
:10095000214001600168034C04EB03431343194336
:10096000016010BD0000FFFF30B54D4D039C102904
:100970006A547DD2DFE801F008101720272F363F98
:10098000464E555E656D7489D0F8805425F07F051C
:100990001543C0F880546BE0D0F8805425F4FE4530
:1009A00045EA022205E0D0F8805425F4FE0545EA28
:1009B0000242C0F880245BE0D0F8805425F0FE4568
:1009C00045EA0262F5E7D0F8845425F07F05154327
:1009D000C0F884544CE0D0F8845425F4FE4545EA30
:1009E000022205E0D0F8845425F4FE0545EA0242CF
:1009F000C0F884243CE0D0F8845425F0FE4545EA54
:100A00000262F5E7D0F8885425F07F051543C0F859
:100A100088542DE0D0F8885425F4FE4545EA02229A
:100A200005E0D0F8885425F4FE0545EA0242C0F8F6
:100A300088241DE0D0F8885425F0FE4545EA02627E
:100A4000F5E7D0F88C5425F07F051543C0F88C5499
:100A50000EE0D0F88C5425F4FE4545EA022205E06C
:100A6000D0F88C5425F4FE0545EA0242C0F88C24E7
:100A700000EB0110016821F003016BB1891C0160DA
:100A800008490968611AC16030BDD0F88C5425F05E
:100A9000FE4545EA0262E9E7491C016030BD0000FD
:100AA000380000203C840040016941F480710161FC
:100AB0007047816821F00901816070472DE9FC4190
:100AC000234E0D4607464FF4806421463046FFF71B
:100AD00005FF2B4600220A213046FFF733FF002591
:100AE000CDE900754FF440731A4A0A213046FFF7EA
:100AF00018FF002317220A2130460095FFF734FF24
:100B0000002304220A213046FFF700FF56F8A00F09
:100B100040F0800030600F4D303DE86840F002004A
:100B2000E8600D490C4A083110688307FCD50B6852
:100B30005B0506D50C60E86820F00200E860BDE8BF
:100B4000FC81C007F0D00449091D08680860F6E779
:100B500000800040301006401C8400402DE9FC411C
:100B6000244D0F4606464FF4007421462846FFF7F1
:100B7000B5FE3B46002209212846FFF7E3FE4FF46D
:100B800040611D48CDE90001002332460921284675
:100B9000FFF7C7FE002003460090162209212846D1
:100BA000FFF7E2FE0023042209212846FFF7AEFEEC
:100BB00055F8900F40F0800028600F4D203DE86808
:100BC00040F00100E8600D490C4A083110688307C5
:100BD000FCD50B689B0506D50C60E86820F0010089
:100BE000E860BDE8FC81C007F0D00449091D086831
:100BF0000860F6E700800040201006401C8400409A
:100C00002DE9F0470446089D006E1F46924689462E
:100C100020F001002066202B00D10027FFF77CFC8C
:100C2000714ADFF8C0C1714B510406464FF000080D
:100C3000B9F1000F13D0C4F8088049EA072040EA50
:100C40000A0040F001002060C4F8048064457DD1B2
:100C5000D1F8180220F0300040F02000B2E0C4F8D3
:100C6000088048EA072040EA0A0040F001002060BE
:100C7000B54220D3644506D1D1F8180220F03000E7
:100C800040F0200015E0944206D1D1F8180220F07F
:100C9000C00040F080000CE0D1F818029C4204D162
:100CA00020F4406040F4006003E020F4405040F441
:100CB0000050C1F818024E4864450FD1D1F81822EF
:100CC00012F0300F48D0D1F81822C2F30112012AD5
:100CD0003DD0D1F81812C1F3011122E094420FD196
:100CE000D1F8182212F0C00F36D0D1F81822C2F372
:100CF0008112012A2BD0D1F81812C1F3811122E000
:100D0000D1F818229C4211D112F4406F24D0D1F8AE
:100D10001822C2F38122012A19D0D1F81812C1F386
:100D20008121022918D1FFF747FC15E012F4405F3A
:100D300012D0D1F81822C2F30132012A07D0D1F81B
:100D40001812C1F30131022904D005E029E0FFF7B0
:100D500067FC01E0FFF7FEFBB54201D2854203D3F9
:100D6000C4F80480BDE8F08740F2FF125DB100EBEB
:100D700080014900B1FBF5F10A23491DB1FBF3F1F4
:100D8000491EFF2904D9616811436160000AE9E73F
:100D900062686FF308020A436260491CB0FBF1F01D
:100DA000E0E7944206D1D1F8180220F0C00040F0EC
:100DB000800011E0D1F818029C4209D120F4406073
:100DC00040F40060C1F81802BDE8F047FFF7F4BB3B
:100DD00020F4405040F40050C1F81802BDE8F0473C
:100DE000FFF7B8BB00100640002006400030064068
:100DF000001BB70070B55920840716218822C4F85B
:100E00000001C4F80011C4F80021D4F80031002B0F
:100E1000F5D04FF04025D5F8400120F0F000C5F89E
:100E200040010120FFF768FB0120FFF7DFFC1D48B0
:100E3000FFF71EFC1120C4F834021B4E3046FFF7AA
:100E4000A3FA002211463046FFF786FC174E002217
:100E500020213046FFF780FC3046FFF795FA01204D
:100E6000FFF792FA00F0DCF900F0EAF900F078F907
:100E7000E06B20F47F00E063E06B40F4CC00E063C3
:100E8000206B44F2444108432063686A40F0040048
:100E9000686201220F212846FFF7D4FC0020C4F825
:100EA000000170BD00B0710B103D80570D00406611
:100EB0000121044A814002EB106002680A438A4320
:100EC000026070470800004006498A691202FCD49B
:100ED0000A2804D10D220A608A691202FCD4086033
:100EE00070470000000007401248816821F00C01A3
:100EF00041F001018160062101624169C907FCD10D
:100F0000816821F0080141F005018160816821F0CC
:100F10000C0141F001018160C72101624169C907EB
:100F2000FCD1816821F0080141F005018160FFF7E3
:100F3000BBBD00000010064038B51248124D002419
:100F400000900823042221462846FFF759FE284630
:100F5000FFF7AFFDA96821F0080040F00501A96086
:100F600000F0A8F8014609A000F0CEFD0B49FF20D3
:100F700001F5807208551055641CA4B2FF2CF9D9F4
:100F800038BD000040420F00001006404944203A9E
:100F90002030782532580D0A00000000480000205B
:100FA00070B5214C0B460546A168002021F00C01CC
:100FB00041F00101A160062121626169C907FCD1EC
:100FC000A16821F0080141F00501A160A16821F0AC
:100FD0000C0141F00101A16002212162C5F307412A
:100FE0002162C5F307212162E9B221622AB14FF4DF
:100FF00080711846FFF7B2FD08E061698903FCD4EF
:10100000195C21620146401CFF29F6D36169C907BA
:10101000FCD1A168204621F0080141F00501A16042
:10102000BDE87040FFF740BD0010064070B51A4C97
:101030000D461646A16821F00C0141F00101A160A6
:1010400003212162C0F307412162C0F3072121621D
:10105000C0B220626069C007FCD12046FFF724FDC2
:101060002EB14FF480712846FFF728FD0AE00020DA
:10107000034623626269D107FCD1216B2954401CCD
:10108000FF28F6D96069C007FCD1A06820F00800ED
:1010900040F00500A06070BD001006400002FFF7A0
:1010A000C5BF10B50002FFF77BFFBDE8104000F0A0
:1010B00043B800000CB5124900208A6822F00C02E7
:1010C00042F001028A6090220A62086208620862A5
:1010D000086208624A69D207FCD18A6822F00802D5
:1010E00042F005028A606B4603E00A6B1A54401C0A
:1010F000C0B24A69D205F8D5BDF8040040BA0CBDAB
:10110000001006400B48816821F00C0141F00101FC
:10111000816005210162002101624169C907FCD19A
:10112000816821F0080141F005018160016B006BCD
:10113000C0B270470010064010B5074AFFF7E2FF43
:10114000116810F0010F81F001011160F6D1BDE8C6
:10115000104002A000F0D8BCC44900400D0A0000B5
:1011600010B5FFF75DFA0E4A4FF080439060D3F858
:10117000101201F00701022903D002F10C0050F80F
:101180002100D3F8201201F00F01491CB0FBF1F04F
:101190000449106008444900B0FBF1F0506010BDF4
:1011A0000000002020A107001A48016841F47001E6
:1011B00001601948C16C21F00F0141F00801C164C0
:1011C0004FF08040D0F8981241F48021C0F8981276
:1011D000D0F8081241F00201C0F808120F49D1F806
:1011E000042102F0F732C1F80421D1F8082102F0FD
:1011F000F732C1F80821D0F8081221F00201C0F836
:1012000008124FF04020D0F8401121F0F001C0F852
:101210004011704788ED00E000C00040001004401D
:1012200010B5064C2046FFF7AFF82046BDE8104049
:1012300000224FF40071FFF78FBA00000200805EB9
:1012400010B5064C2046FFF79FF82046BDE8104039
:1012500000224FF4E041FFF77FBA00000300C05EB8
:1012600010B50A4C4FF47A724FF00061204600F03E
:101270004BF8206840F0005020602120FFF722FB4F
:10128000206840F08040206010BD00000001054053
:1012900010B588B00446202217496846FEF7F6FFCD
:1012A000164A174B9003944204D1D0F81402C0F3AD
:1012B000022110E09C4204D1D0F81402C0F30231A4
:1012C00009E01049D0F814028C4202D1C0F3024167
:1012D00001E0C0F30251022903D05DF8210008B0FB
:1012E00010BD944201D09C4202D1FFF733F9F6E7DA
:1012F000FFF762F9F3E70000E0210000000005407D
:10130000000105400010054070B516460D46044624
:10131000FFF7BEFF0023B6EB500F01D9022206E013
:10132000B0FBF6F2130E02D0591CB2FBF1F21D43D2
:10133000256062605B1C5A43B0FBF2F070BD000098
:101340000B488168C1F3000100290FD001218160A1
:1013500008494888421C4A80B0F57A7F06D90020A7
:1013600048800548016881F0010101607047000074
:101370000001054030000020C849004010B50B4C6A
:10138000E06910F4885F02D104E000F049F9A16936
:101390004904FAD5A169204611F0710F05D0BDE8C6
:1013A00010404FF4105100F087B810BD0000074006
:1013B00010B51E48FFF77CFD1D4C4FF4E13120466F
:1013C00000F098F81421204600F020F9A06820F0E1
:1013D0001000A060A06840F02000A060606840F6A7
:1013E0001101084360602420FFF76CFAFFF78CF8C6
:1013F000014610A000F088FBFFF796F8014614A004
:1014000000F082FBFFF79AF8014617A000F07CFB82
:10141000FFF7A0F801461AA000F076FBFFF7CCF822
:101420000146BDE810401DA000F06EBB1000000496
:10143000000007400D0A434C4B5F4765744350550D
:1014400046726571203A202538640D0A00000000BC
:10145000434C4B5F47657448585446726571203A57
:10146000202538640D0A0000434C4B5F4765744CDF
:10147000585446726571203A202538640D0A0000E0
:10148000434C4B5F47657450434C4B30467265711B
:10149000203A202538640D0A00000000434C4B5FC1
:1014A00047657450434C4B3146726571203A202594
:1014B00038640D0A000000004A0503D570228261DD
:1014C000082282610A0503D5426942F001024261A5
:1014D0008A0401D5064A82614A0401D51F2242646A
:1014E000090404D58021C16140F20F318163704746
:1014F000010000012DE9FF4104463C480F4600254C
:101500000FC88DE80F003A492E464FF080408C42BC
:1015100006D1D0F81412D0F82002C1F301652AE0F8
:1015200034498C4206D1D0F81412D0F82002C1F30D
:1015300081652BE030498C4208D1D0F81C12D0F8DC
:101540003002C1F3016500F00F0621E02B498C4207
:1015500008D1D0F81C12D0F83002C1F38165C0F375
:10156000031615E026498C4208D1D0F81C12D0F899
:101570003002C1F30175C0F3032609E021498C4212
:1015800006D1D0F81C12D0F830028D0FC0F303360C
:10159000002020630320E060A0681B490840A06091
:1015A000E846012D02D1FFF73BF80190002F1AD039
:1015B00058F82510761CB1FBF6F000EB5700B0FB95
:1015C000F7F0801EB0F5803F0AD3B1FBF6F000EBD8
:1015D000C700B0FBF7F06FF0010101EB101001E064
:1015E00040F040506062BDE8FF810000B021000083
:1015F000000007400010074000200740003007406F
:1016000000400740005007400FFFF0FF026A22F041
:10161000FF020A430262416841F400614160704781
:101620002DE9F041884800252C460068C0B27F288B
:1016300001D986A0FCE0DFF828828A4E4FF480773B
:10164000372875D008DCA0F1310006285FD2DFE82A
:1016500000F03B44606571835A280BD006DC3828C3
:1016600067D03F2813D0582851D103E0782801D003
:101670007A284CD1BFF34F8F7B4908687B4A00F42E
:10168000E06010430860BFF34F8F00BFFDE778A014
:1016900000F03AFA7EA000F037FA81A000F034FAA8
:1016A00085A000F031FA89A000F02EFA8BA000F09E
:1016B0002BFA8EA000F028FA96A000F025FAA3A03D
:1016C00000F022FAA6A0B3E0ADA000F01DFAFFF7EB
:1016D0000BFCFFF731FDB2A0AAE07178B5A000F0D5
:1016E00013FA39465E4800F005FD72784146A818A5
:1016F00048556D1CADB2FF2DF9D9B8A000F004FA21
:101700003946574800F096FC7078401C7070BDE870
:10171000F0813178481C3070B4A091E0BEA000F098
:10172000F3F900224E493078FFF7BBFCBFA07FE001
:1017300049E081E03946C34800F0DCFCC2A000F07B
:10174000E3F90022BF493078FFF7A8FC3946BD48CD
:1017500000F070FCC0A06BE03D463946B94800F08F
:10176000C9FC87A000F0D0F9FFF7BEFBFFF7E4FC4F
:101770008BA000F0C9F947462146BDA000F0C4F98E
:101780002946374800F0B6FC7178002042183A54D8
:10179000401C80B2FF28F9D9491C717000223049E1
:1017A0002046FFF77EFC0022A6492046FFF776FC84
:1017B0002A46A4492A4800F0F9FB641CA4B2102C64
:1017C000DAD3B3A034E039469E4800F093FC6CA015
:1017D00000F09AF9FFF788FBFFF7AEFC70A000F06D
:1017E00093F945462146B0A000F08EF939461C48D1
:1017F00000F080FC7178002042182A54401C80B20E
:10180000FF28F9D9491C7170012215492046FFF7BC
:1018100048FC01228B492046FFF740FC3A468949A3
:101820000F4800F0C3FB641CA4B2102CDAD3A7A0AD
:10183000BDE8F04100F068B9FFF73CFC0146AAA002
:10184000BDE8F04100F060B900000740696E7661C4
:101850006C696420636F6D6D616E640D0A00000039
:1018600048000020300000200CED00E00400FA05E4
:101870000D0A3D3D3D3D3D3D3D3D3D3D3D3D3D3DFB
:101880003D3D3D3D3D3D3D3D3D3D3D3D0D0A000065
:10189000313A20636869702065726173650D0A00D2
:1018A000323A2066696C6C20696E2054582064615D
:1018B00074610D0A00000000333A207061676520F2
:1018C000636F756E7465720D0A000000343A205023
:1018D0006167652077726974650D0A00353A20509A
:1018E00061676520726561640D0A0000363A2073F5
:1018F000656C662074657374202C2077726974653A
:10190000202C2072656164202C20636F6D706172E1
:10191000650D0A00373A2073656C66207465737430
:10192000202C207772697465202C207265616420F8
:101930002C20636F6D7061726520202C2077697494
:10194000682050444D410D0A00000000383A2072D2
:10195000656164204944202830783930290D0A0017
:101960003D3D3D3D3D3D3D3D3D3D3D3D3D3D3D3DA7
:101970003D3D3D3D3D3D3D3D3D3D0D0A0D0A0000D7
:10198000706572666F726D20537069466C61736822
:101990005F4368697045726173650D0A000000005D
:1019A00065726173652066696E6973680D0A0D0A58
:1019B00000000000696E6372656173652074657371
:1019C0007420646174612073746172742066726F34
:1019D0006D2030782532580D0A0000005478427589
:1019E00066666572203A200D0A0000005350495F78
:1019F000464C4153485F706167655F636F756E74F5
:101A000065722063757272656E74203A2030782595
:101A100032580D0A0D0A000070726F6772616D6DA9
:101A2000696E672E2E2E0D0A0000000070726F671F
:101A300072616D6D696E672066696E6973680D0A03
:101A40000D0A000048010020726561642070616722
:101A500065202E2E2E0D0A0072656164207061676C
:101A6000652066696E6973680D0A0D0A0000000042
:101A70000D0A53454C462054455354202E2E2E20FB
:101A80002870616765203A20253264290D0A00001C
:101A900053454C4620544553542066696E6973681B
:101AA0000D0A0D0A000000000D0A50444D4120535C
:101AB000454C462054455354202E2E2E202870612C
:101AC0006765203A20253264290D0A0050444D41B3
:101AD0002053454C4620544553542066696E697323
:101AE000680D0A0D0A000000537069466C61736846
:101AF0005F526561644D6964446964203A203078BE
:101B00002532580D0A0A00000FB4054B10B503A981
:101B1000044A029800F018F810BC5DF814FB0000AD
:101B2000C12000002C00002002E008C8121F08C1DC
:101B3000002AFAD170477047002001E001C1121F4E
:101B4000002AFBD1704700002DE9FF4F8DB00F46F2
:101B50000546002606E025280BD0DDE90F12904748
:101B60006D1C761C28780028F5D111B03046BDE8F0
:101B7000F08F0024A246A1460122EC4900E0044374
:101B800015F8013F203B02FA03F00842F7D128780C
:101B90002A2810D06FF02F022878A0F130010929EF
:101BA00014D80AEB8A0102EB410144F0020400EB75
:101BB000010A6D1CF0E701CF5FEA000A03D544F487
:101BC0000054CAF1000A44F002046D1C28782E2843
:101BD00017D115F8010F44F004042A280ED06FF035
:101BE0002F022878A0F1300109290AD809EB8901D0
:101BF00002EB410100EB01096D1CF2E757F8049B71
:101C00006D1C28786C280FD006DC4C2817D068286B
:101C10000DD06A2814D104E0742810D07A280FD18E
:101C20000DE044F400140AE044F4801401E044F4AC
:101C300040146978814202D104F580146D1C6D1C3A
:101C40002A786E2A1FD00CDC632A31D004DC002AEB
:101C50008BD0582A11D1A3E0642A68D0692A0CD10C
:101C600065E0732A2ED004DC6F2A73D0702A04D169
:101C70009BE0752A6FD0782A6ED01046DDE90F12EE
:101C80009047761C50E1C4F30250022806D0032886
:101C900009D0042801CF09D0066045E101CFF11732
:101CA000C0E9006140E101CF06803DE106703BE103
:101CB00017F8040B8DF8000000208DF80100EB46AA
:101CC000012003E057F804BB4FF0FF3061074FF0ED
:101CD000000102D40DE008F10101884649450FDA00
:101CE0008045F8DB1BF808100029F4D108E008F162
:101CF000010188468142FADB1BF808100029F6D161
:101D0000DDE90F23AAEB08008146214600F036F9F1
:101D1000304400EB080604E0DDE90F121BF8010B6C
:101D20009047B8F10108F7D221464846F7E00A216A
:101D3000C4F302534FF0000B0891022B04D001CFE3
:101D4000C117032B09D00AE0FF1D27F00707F7E8AA
:101D5000020108E032E01FE020E000B2C117042BCE
:101D600001D140B2C117031E71F1000307DA4FF031
:101D7000000CD0EB0C006CEB01012D2302E02305DD
:101D800004D52B238DF82430012303E0E30701D091
:101D90002023F7E7984658E00A2110E010210EE0D2
:101DA00010204FF0000B08900CE010214FF0000BBA
:101DB00044F004044FF00809089103E008214FF0B3
:101DC000000B0891C4F30253022B04D001CF002171
:101DD000032B06D006E0FF1D27F00707F7E80201F6
:101DE00003E080B2042B00D1C0B24FF000082307FB
:101DF0002BD5702A07D0DDF820C08CF0100C5CEADF
:101E00000B0C05D00EE040238DF82430012308E0B0
:101E100050EA010306D030238DF824308DF82520B8
:101E200002239846DDF820C08CF0080C5CEA0B0C0D
:101E30000BD150EA010301D1630706D530238DF899
:101E400024304FF00108A9F10109582A04D038A222
:101E50000B9208AA0A920BE03AA2F9E75B46089AAD
:101E6000FEF726FA0B9B9B5C0A9A521E0A9213708D
:101E700050EA0102F2D10A98ADEB000000F1200B0C
:101E8000600702D524F4803401E04FF00109D94500
:101E900002DDA9EB0B0000E0002000EB0B01414448
:101EA0000890AAEB010AE00306D4DDE90F232146DE
:101EB000504600F063F806444FF0000908E009A915
:101EC00011F80900DDE90F12904709F10109761CAC
:101ED000C145F4DBE0030CD5DDE90F232146504674
:101EE00000F04CF8064404E0DDE90F123020904782
:101EF000761C0899481E08900029F5DC08E00A982D
:101F00000A990078491C0A91DDE90F129047761C66
:101F1000BBF10001ABF1010BF1DC21465046DDE9DC
:101F20000F2300F019F806446D1C1BE60928010078
:101F3000303132333435363738396162636465663F
:101F40000000000030313233343536373839414201
:101F500043444546000000002DE9F04104460025B9
:101F60001E461746880404D405E039462020B047B1
:101F70006D1C641EF9D52846BDE8F0812DE9F041BD
:101F8000044600251E469046C80301D5302700E0D0
:101F90002027880404D505E041463846B0476D1C2B
:101FA000641EF9D52846BDE8F08100002DE9F04116
:101FB00016460F46804600240F4D0EE018F8042008
:101FC0003B5D9A4207D021460CA0FFF79DFD686853
:101FD00040F002006860641CA4B2B442EEDB2879D1
:101FE000800707D40E490FA0FFF78EFD686820F028
:101FF00002006860BDE8F081300000206572726FF9
:102000007220696478203A20253464203A203078A0
:10201000253258202C2030782532580D0A00000037
:102020000022000025732066696E697368200D0A1E
:10203000000000002DE9F0410E460746002525E08E
:10204000294616A0FFF760FD00242819395C16A068
:10205000FFF75AFD641C102CF7DB15A0FFF754FDA9
:1020600000242819395CA1F120005F2803D211A0B7
:10207000FFF74AFD02E010A0FFF746FD641C761E44
:10208000102CEEDB0DA01035FFF73EFD002ED7DC47
:10209000BDE8F04109A0FFF737BD000030782530DA
:1020A0003458202000000000253032582000000065
:1020B00020200000256300002E0000000A00000020
:1020C00010B50446FEF700FF204610BDFEF792FE55
:1020D000FFF76EF9FEF7E0FBFFF7C2F8FEF72CFF03
:1020E00003494868C207FCD020F001004860F8E7C7
:1020F000300000200022134602E08354521C92B2AA
:102100008A42FADB7047000010B50446016810A04F
:10211000FFF7FAFC11A06168FFF7F6FC12A0A168B6
:10212000FFF7F2FC13A0E168FFF7EEFC14A02169B1
:10213000FFF7EAFC15A06169FFF7E6FC16A0A169AC
:10214000FFF7E2FCE169BDE8104016A0FFF7DCBC38
:10215000723020203D20307825780A00723120200E
:102160003D20307825780A00723220203D203078DA
:1021700025780A00723320203D20307825780A0027
:10218000723132203D20307825780A006C72202090
:102190003D20307825780A00706320203D2030787B
:1021A00025780A00707372203D20307825780A0067
:1021B000001BB7000000000000800000001BB700FB
:1021C000001BB7000000000000800000001BB700EB
:1021D000001BB7000000000000800000001BB700DB
:1021E000001BB7000080000000000000000000009D
:1021F000000000001027000000000000001BB700D6
:10220000636F6D706172655F62756666657200000E
:10221000302200000000002038000000281B0000D1
:102220006822000038000020100A0000381B00005F
:10223000001BB7000C000000001BB700001BB7001C
:1022400000800000000000001027000000000000D7
:102250000000000000000000001BB70000000000AC
:08226000000000000000000076
:0400000500000225D0
:00000001FF
